:020000020000FC
:020000003FC0FF
:02002C0037C1DA
:020010009AC193
:1000800070E03B9A4398399A3898409A3A9A77D0D8
:10009000B1D06DD17AD1F3D002E000936F0002E0CD
:1000A0000093680001E000936C007894FFCF10E8A3
:1000B00079D0F4E0E0E01591103011F087D0FBCF5B
:1000C000A3D060EDADD060E0ABD0A6D09DD061ED07
:1000D000A7D0B0D0862FAED0962FACD0A62FB4D05C
:1000E0009BD0BAD06A2F5FD1132F70D0122F6ED051
:1000F0001AE36CD0692F57D1132F68D0122F66D016
:100100001AE364D0682F4FD1132F60D0122F5ED026
:10011000089510EC47D0F4E0E6E01591103011F0AE
:1001200055D0FBCF71D060ED7BD064E079D074D036
:100130006BD061ED75D07ED0B62F7CD0C62F7AD033
:10014000D62F82D069D088D06B2F2DD1132F3ED0DF
:10015000122F3CD01FE23AD06C2F25D1132F36D06E
:10016000122F34D01FE232D012E330D010E32ED061
:100170006D2F19D1132F2AD0122F28D008950FEFE9
:1001800004B90FEF0AB968D067D012E00BD018E2BB
:1001900009D011E007D01CE005D016E003D010E82C
:1001A00001D00895012F007F0BB92B982A982C9A23
:1001B00000002C9851D0012F0295007F0BB92B988D
:1001C0002A982C9A00002C9847D00895012F007F80
:1001D0000BB92B9A2A982C9A00002C983DD0012F0D
:1001E0000295007F0BB92B9A2A982C9A00002C9824
:1001F00033D0089508E00093B80001E00093B900FF
:1002000004E00093BC00089504EA0093BC00009150
:10021000BC0007FFFCCF089504E90093BC000895DB
:100220006093BB0004EC0093BC000091BC0007FF8E
:10023000FCCF089504EC0093BC000091BC0007FFC4
:10024000FCCF6091BB00089504E80093BC000091CE
:10025000BC0007FFFCCF08950F9309EF0093B30094
:1002600002E00093B00005E00093B10007B301FF86
:10027000FDCF07BB00E00093B1000F9108950F93ED
:1002800004EF0093890003E20093880000E00093EC
:1002900080000CE0009381000F91089571300FB73A
:1002A00000FD4AC099D010EC7DDF96D010EC7ADFCB
:1002B00083958C3398F4292F85D0632F74D0132F16
:1002C00085DF122F83DF1AE381DF282F7BD0632F96
:1002D0006AD0132F7BDF122F79DF34C088279395E4
:1002E000923399F0292F6ED0632F5DD0132F6EDFDC
:1002F000122F6CDF1AE36ADF282F64D0632F53D0EC
:10030000132F64DF122F62DF1DC0292F5BD0632FF4
:100310004AD0132F5BDF122F59DF1AE357DF282F44
:1003200051D0632F40D0132F51DF122F4FDF439A4C
:1003300000E00093810006C0BADEEBDE58B144E075
:10034000542758B918950F931F931FB71F9382E333
:1003500091E3439894DF4AD018B102E0102718B90E
:1003600001E070271F911FBF1F910F9118954CDF5F
:1003700060ED56DF60E054DF60E052DF60E050DFA8
:1003800060E24EDF49DF68DF08953EDF60ED48DF61
:1003900064E046DF62E244DF65E042DF64E240DFC2
:1003A0003BDF5ADF08950F931F9300E3162F1F7052
:1003B000212F162F12951F70312F300F200F1F91F4
:1003C0000F91089533272A3018F02A503395FBCF28
:1003D0003295307F320F089510E8E4DEF4E0ECE06F
:1003E0001591103011F0F2DEFBCF089511E0DADE46
:0203F00008956E
:1004000054494D457C00444154457C0048454C4C82
:0A0410004F204348414E20212100F7
:00000001FF
